:100000000C94BB020C94F3020C94F3020C94F302D4
:100010000C94F3020C94F3020C94F3020C94F3028C
:100020000C94F3020C94F3020C94E4220C94A0229E
:100030000C94E1230C94F3020C94F3020C94F3025D
:100040000C94F3020C94F3020C94F3020C94F3025C
:100050000C94F3020C94BD230C94F3020C94F30261
:100060000C94F3020C94F3020C94F3020C94F3023C
:100070000C94F3020C94F3020C94F3020C94F3022C
:100080000C94F3020C94F3020C94F3020C94F3021C
:100090000C94F3020C94F3020C94F3020C94F3020C
:1000A0000C94F3020C94F3020C94F3020501090280
:1000B000A10185020901A1000509190129081500FE
:1000C0002501950875018102050109300931158165
:1000D000257F95027508810609381581257F9501D0
:1000E00075088106050C0A38021581257F95017572
:1000F000088106C0C005010980A101850319012AF4
:10010000B700150126B700950175108100C0050CD8
:100110000901A101850419012AA002150126A002E6
:10012000950175108100C00660FF0961A101096297
:10013000150026FF00952075088102096315002629
:10014000FF00952075089102C005010906A101056F
:100150000719E029E7150025019508750181029529
:1001600001750881010507190029FF150026FF0008
:100170009506750881000508190129051500250156
:10018000950575019102950175039101C0FD377ABE
:10019000585A000004E6D6B44602002101160000B9
:1001A00000742FE5A3E0010300AF5D003D8889C620
:1001B0005436C3174FE4E62D65CF099BCCB42327F3
:1001C0002F04CB899E6D8CE1DFFA171FDBDD7E7D6E
:1001D0005075AA0530AF27C43C2ABC32F57A58299D
:1001E000F030914B0F91E61CC7731BA1FCA8780C53
:1001F000A405864EF8E419EBDA97D50E491B12CF09
:100200008B0CB475ADDA841BB13C3013C78B4FE84F
:10021000FA13F195DF91A0B9BD1619A37CB02ED3C6
:1002200072501A8E3ED5A792965B72CBB9D3C2E0BC
:10023000353B83FF591E689166383265BC2F1F7BA2
:1002400054FC7C408E0F10F0DBEAC439E7DB6AAE69
:10025000D158F656A64470D8FEFE0000004F157522
:10026000642E0C8D210001CB018402000018E6A54C
:10027000E4B1C467FB020000000004595A01000108
:1002800000E9037D0D620D000002000200E5037D20
:100290000D620D000003000100EA037D0D620D00F8
:1002A0000004000200CF037D0D620DDB0505000197
:1002B00000EB037D0D620D000006000200D1037DFE
:1002C0000D620D000007000200E7037D0D620D00C6
:1002D0000008000100EC037D0D620D000009000222
:1002E00000D3037D0D620DB6050A000200D5037D23
:1002F0000D620DB6050B000200D7037D0D620DB631
:10030000050C000200D9037D0D620DB6050D00023B
:1003100000DB037D0D620DB6050E000200DD037DDE
:100320000D620DB6050F000200DF037D0D620DB6F4
:100330000510000200E1037D0D620DB605110002FB
:1003400000E3037D0D620DB60512000200ED037D92
:100350000D620D000013000200EF037D0D620D0021
:100360000014000100F1037D0D620D000015000076
:100370000000003C05AB12000029003A003B003CA5
:10038000003D002A0028003E003F004000000041E0
:10039000002B00E2002C410000E000420029003A5E
:1003A000003B003C003D002A0028003E003F00408A
:1003B00000000041000100010001000000010001F7
:1003C0000001000100010001000100010001000125
:1003D0000001000100000001000100010001000017
:1003E0000001000100010001000100010001000105
:1003F00000010001000100010000000100010001F6
:1004000000010000000100010009025B000301007F
:10041000A0FA0904000001030101000921110100F3
:1004200001224400070581030800010904010002BC
:1004300003000000092111010001222200070582AA
:100440000320000107050303200001090402000145
:1004500003000000092111010001227B000705842F
:10046000032000011201000200000008444B465323
:100470000100010203011C037600690061006C00A9
:100480003A00660036003400630032006200330038
:10049000630000000E0353007500660066006500EF
:1004A000720000001C034B006900730065007200BD
:1004B0002000440065007300690067006E0073004F
:1004C0000000040309040000000000000000000018
:1004D000000000000000000000000000000000001C
:1004E000000000000000000000007E0F00D4FFFFAD
:1004F000FFC70000007800000000000000002A2B69
:1005000028000000000000000000000000000000C3
:100510000029000000002C1E34202122243426272C
:10052000252E362D3738271E1F202122232425264D
:100530003333362E37381F0405060708090A0B0C1B
:100540000D0E0F101112131415161718191A1B1C63
:100550001D2F3130232D350405060708090A0B0C21
:100560000D0E0F101112131415161718191A1B1C43
:100570001D2F3130354C11241FBECFEFDAE0DEBF26
:10058000CDBF04B603FE18C08091310690913206AB
:10059000A0913306B09134068730904BA740B04B02
:1005A00059F41092310610923206109233061092CE
:1005B0003406E0E0F8E3099511E0A0E0B1E0ECE8F2
:1005C000F8E502C005900D92AE36B107D9F726E0E6
:1005D000AEE6B1E001C01D92A133B207E1F70E947F
:1005E00008240C94F72B0C940000482F20912C0623
:1005F0009091E30559E0291302C080E0089530E0AE
:10060000529FF001539FF00D1124EC51FA4F81815C
:10061000681306C08081481303C085818111EECF25
:100620002F5F3F4F2770E7CFE8EDF0E080818E7FAE
:1006300080831092E2001092DA001092E100A0EEA6
:10064000B0E08C9181608C9380818F77808319BC1E
:10065000A7EDB0E08C918E7F8C9380818F7E80831C
:100660001092CC0508952091E4003091E50095E6C4
:10067000A9012091EC00822F817020FF06C080919B
:10068000E80080FF06C080E008952091E80022FD88
:100690001AC08091D905882389F0853089F080912E
:1006A000EB0085FD0FC02091E4003091E50042177A
:1006B0005307F9F29150E1F684E0089582E008953D
:1006C00083E0089581E008958091DB0587FF13C0E2
:1006D0008091E80082FF06C08091E8008B778093CC
:1006E000E80004C08091D9058111F2CF089580916E
:1006F000D9058823D9F38091E80080FFF8CF809155
:10070000E8008E77ECCF982F9093E900242F762F76
:1007100050E0891731F07091EC002091ED0050917C
:10072000F00021FD07C09F5F973071F78093E900CB
:1007300081E008953091EB003E7F3093EB003091E3
:10074000ED003D7F3093ED003091EB003160309350
:10075000EB007093EC002093ED005093F00020919B
:10076000EE0027FDE0CF80E00895B0E0A0E0EBEBE5
:10077000F3E00C943A2BC8EDD0E088818F7E88831B
:10078000E7EDF0E080818160808384E082BF81E0DA
:100790008093CC0588818E7F888302EE10E0F8017B
:1007A00010821092DA0081EEC82ED12CF601108250
:1007B00088818F77888388818068888388818F7D0E
:1007C000888319BC1092D9051092DA051092D805C9
:1007D0001092D70590EEE92EF12CF70180818B7FE6
:1007E000808388818160888342E060E080E00E94AD
:1007F0008303F60180818E7F8083F8018081816090
:100800008083808188608083F70180818E7F8083F0
:10081000888180618883CDB7DEB7E8E00C94562BE1
:10082000FC018091E1059091E20586179707A0F001
:100830006115710529F49091E8009E779093E80086
:1008400090E06115710551F4911108C08091E800A4
:1008500082FF34C080E00895BC01F2CF8091D905B9
:100860008823C1F18530C1F18091E80083FD30C05B
:100870008091E80082FDEACF8091E80080FFE1CF1F
:100880008091F3002091F200382F6115710519F065
:100890002830310558F091E02830310509F090E01A
:1008A0002091E8002E772093E800CBCF81918093B0
:1008B000F100615071092F5F3F4FE7CF8091D9055B
:1008C000882341F0853041F08091E80083FFBECF5E
:1008D00081E0089582E0089583E008958091CE0537
:1008E00008959C014FB7F8948091C8059091C9056F
:1008F000A091CA05B091CB054FBF821B930B089501
:100900002FB7F8948091C8059091C905A091CA05A8
:10091000B091CB052FBF08959C01FC0132969FEF4B
:1009200080E04191461751F09F3F19F4411101C0F9
:10093000982F8F5F8630A9F79F3F09F40895290FFC
:10094000311D97FD3A95F90162830895A3E0B0E067
:10095000ECEAF4E00C94402B2091C5053091C605DB
:1009600028173907A1F09093C6058093C505E0913B
:10097000C305F091C405309751F024E029839B838F
:100980008A830680F781E02DCE0101960995239692
:10099000E2E00C945C2BA3E0B0E0E1EDF4E00C9419
:1009A000402B2091C1053091C20528173907A1F0CD
:1009B0009093C2058093C105E091C305F091C405F1
:1009C000309751F023E029839B838A830680F78147
:1009D000E02DCE01019609952396E2E00C945C2B64
:1009E000E091C305F091C405309729F00190F081A2
:1009F000E02D0995089580E00895DC016091BB0524
:100A00008091BC05962F891301C00895292F30E0ED
:100A1000F901EE0FFF1FED54FA4F408151814A1743
:100A20005B07A1F487E08A9FA0018B9F500D1124E2
:100A300046505C4F81E0FA0184839613E6CF2F5F26
:100A40003F4F237033272093BB0508952F5F3F4FFF
:100A5000922F9370D8CF1092F8031092F703EAEF19
:100A6000F3E08581811102C014821682379685E0F9
:100A7000EA34F807B1F70895B0E0A0E0E2E4F5E069
:100A80000C94382B8FEF9FEF4430510508F469C068
:100A90004091AC0341FB882780F990E0880F991FB3
:100AA00042FB002700F910E0000F111F000F111F7B
:100AB000802B912B40FBCC24C0F8D12C8C299D2974
:100AC00043FB222720F9C22FE0E0DE2F53E0CC0FBA
:100AD000DD1F5A95E1F78C2B9D2B44FBAA27A0F92B
:100AE000B0E0E4E0AA0FBB1FEA95E1F78A2B9B2B4D
:100AF00045FBEE27E0F9F0E0A5E0EE0FFF1FAA9519
:100B0000E1F78E2B9F2B46FB222720F930E0B6E041
:100B1000220F331FBA95E1F7822B932B47FB222735
:100B200020F930E03695322F222737952795822BF2
:100B3000932B2091AD03322F3170F32EE82EF92A3A
:100B400026952170B22EBB0CA82EBF28C501BB0C68
:100B5000AA0BBB0BFB0180839183A283B38390E03C
:100B600080E0CDB7DEB7EAE00C94542BEFECF3E075
:100B7000848195812AE030E0B9010E94FB2A6093CC
:100B80000F01868180930E01828580930D018485FB
:100B900080930C0186859785B9010E94FB2A60939A
:100BA0000B01808980930A018289809309018489DD
:100BB0008093080108958091CF039091D003909382
:100BC00011018093100108950E9480049C0190916E
:100BD000C6018091C701982B21F03093C301209367
:100BE000C2019091C8018091C901982B21F03093E6
:100BF000C1012093C001E091C305F091C405309775
:100C000049F082E08093C4010480F581E02D84ECFA
:100C100091E0099508958091BF0180FF0CC060911B
:100C2000090170E075956795759567956115710572
:100C300049F1862F089581FF06C06091090170E097
:100C400075956795F3CF6091090182FD0BC0909176
:100C5000BE019923A1F060910801809109019617C6
:100C600038F0682F70E06038710500F38FE7089561
:100C7000899FC001112470E00E940F2BF4CF61E026
:100C800070E0D7CF81E008958091BF016091D703D4
:100C90007091D80380FF16C020910D01269FC001DE
:100CA000279F900D1124BC017695679576956795E1
:100CB0006038710508F043C06115710509F441C041
:100CC000862F089581FF0BC020910D01269FC00142
:100CD000279F900D1124BC0176956795E9CF82FF7F
:100CE00009C080910D019B01829FB001839F700D0F
:100CF0001124DECF2091BD012223D1F290910C016D
:100D000080910D01482F50E0291748F0CB01849FB6
:100D1000B001859F700D949F700D1124C9CF289F3D
:100D200090011124269FA001279F500D369F500D42
:100D30001124692F70E0CA010E94FB2AB9CF8FE706
:100D4000089581E00895282F35EB2303C001112475
:100D500097FF04C080589109892F089580589F4FAC
:100D6000FBCF80E00895F894E82FE295EF70F0E073
:100D700031A1282F2F7081E090E001C0880F2A95C3
:100D8000EAF7982F9095932391A392A1892B82A3A0
:100D9000789408959091AC0392FF10C041E0282F01
:100DA0002471243009F040E031E0282F28712830E8
:100DB00009F030E0431711F02CE0822793FF10C0B8
:100DC00041E0282F2471243109F040E031E0282F40
:100DD0002871283109F030E0431711F02CE0822708
:100DE0003091AD0330FF10C051E0282F2171213028
:100DF00009F050E041E0282F2871283009F040E048
:100E0000541711F029E0822731FF10C041E0282F4C
:100E10002171213109F040E031E0282F287128317B
:100E200009F030E0431711F029E0822794FD877E16
:100E3000089582389105B9F1B0F48133910509F430
:100E40007DC048F48932910509F46DC08A3291055C
:100E500009F47BC008958533910509F45FC0893397
:100E6000910509F10895833E9105D9F138F4803E4A
:100E7000910529F1823E910579F10895863E91050B
:100E8000D9F1873E910509F43EC0843E910541F5B4
:100E90002091AD0321FF24C08091AC0384FD19C0D3
:100EA00087EE90E008952091AC03237009F05AC0BA
:100EB0002091AD0323FF14C089E290E008952091B2
:100EC000AC0320FD38C03091AD0330FF09C024FFD2
:100ED00043C090E080E008952091AC0322FDF7CF5D
:100EE00008952091AC0322FD3AC03091AD0330FD4E
:100EF00039C024FFF5CFEDCF2091AC0323FFF0CF15
:100F000024FDE7CFCDCF2091AC0323FD2EC030913F
:100F1000AD0331FFEECF84EE90E008952091AC0355
:100F200025FFDECFC9CF2091AC0325FD21C0209144
:100F3000AD0323FFD5CF89E390E0D2CF2091AC035E
:100F400026FFCECF8AE290E008952091AC0326FFE1
:100F5000C7CF81E390E0089583EE90E0089582EE9C
:100F600090E0089580EE90E0089586EE90E0089578
:100F700085E390E008951F93CF93DF930E941907B4
:100F8000EC01C11580E5D807F0F5C11580E4D8075C
:100F900008F09CC0C03ED10520F5CD3CD10508F03D
:100FA00082C0C83AD10578F4C53AD10508F073C0BB
:100FB000C130D10519F1209709F1C430D105F0F401
:100FC000D0E0C0E01BC0C33CD105D0F7C85AD0E088
:100FD000CC0FDD1FC05EDE4F0990D881C02DD464D8
:100FE0000DC0C11580E2D80708F0D1C0C11581E05D
:100FF000D80708F05AC0C83ED10510F7CE01DF91DE
:10100000CF911F910895C03682E5D80718F5C034F6
:1010100082E5D80708F06BC0C03282E5D80708F037
:101020005FC0C11582E5D80708F497C02C2F26951C
:10103000269580E2289F900111248C2F8370C1E0B7
:10104000D0E002C0CC0FDD1F8A95E2F7C22BD32B74
:10105000DD68D4CFC03A82E5D80760F4C03882E5B5
:10106000D80708F459C0CF71D0E0DC2FCC27C46F6B
:10107000D06AC4CFC03C82E5D80708F462C0C03E45
:1010800082E5D80708F09CCFDC2FCC27CC27DF7176
:10109000C06FD06AB3CFC55AD0E0C35EDE4FC881FF
:1010A000D0E0D064ABCFD065A9CF8D2F0E94CA0607
:1010B000182FCE0199270E941907C12FD0E0DC2FED
:1010C000CC27CC27DF71C82BD92B98CFCE019927FD
:1010D0000E941907CC27DF70C82BD92BD06A8ECF7E
:1010E000CF71D0E0DC2FCC27C16FD06A87CF2C2FF7
:1010F00026952695277080E2289F900111248C2F39
:101100008370C1E0D0E002C0CC0FDD1F8A95E2F70A
:10111000C22BD32BDC6872CF2C2F269526952770F7
:1011200080E2289F900111248C2F8370C1E0D0E0D1
:1011300002C0CC0FDD1F8A95E2F7C22BD32BDA68F1
:101140005DCF8C2F8F710E94CA06C82FD0E0DC2F94
:10115000CC27CC27DF71D06251CF8C2F8F710E94AA
:10116000CA0655E0D695C7955A95E1F7CF70D0E0FD
:10117000DC2FCC27282F30E084FF05C044E0220F6D
:10118000331F4A95E1F7C22BD32BD06937CF8D2F70
:101190008F710E94CA06182FCE0199270E94190745
:1011A000C12FD0E0DC2FCC27CC27DF71C82BD92B67
:1011B000D2CF80919B01882331F010929B01109235
:1011C0009A01109299010895CF93C82F8091AD0391
:1011D00082FF0CC080919B018C1741F00E9480041B
:1011E00090939A0180939901C0939B01CF910895A8
:1011F00090919B01292F282361F08095892380936A
:101200009B01882339F00E94800490939A01809377
:101210009901089590E080E0F8CF80959091AE0319
:1012200098239093AE0308951092900110928F012D
:1012300010928E0108958091D1039091D203892B51
:1012400089F00E9480042091990130919A01AC01AB
:10125000421B530B81E02091D1033091D2034217FE
:10126000530708F480E08170089590918D01292F33
:10127000282321F08095892380938D010895809102
:101280002C069091E305981301C008958F5F877035
:10129000FACF292F933078F5863068F590E036E064
:1012A000239F800D911D1124682F677023E0969570
:1012B00087952A95E1F7FC01EE0FFF1FE80FF91F54
:1012C000E558FE4F50E040E080E0219130E0062EEE
:1012D00002C0369527950A94E2F721703327042E31
:1012E00001C0220F0A94EAF7822B4F5F5F4F433011
:1012F000510559F7089580E00895292F933098F506
:10130000863088F590E036E0239F800D911D1124F2
:10131000282F277041E001C0440F2A95EAF723E007
:10132000969587952A95E1F7FC01EE0FFF1FE80FD0
:10133000F91FE558FE4F30E020E070E05191DF01E9
:101340001197CB01022E02C0969587950A94E2F779
:10135000817081958527842385278C932F5F3F4F4C
:101360002330310559F708958093A5010895909190
:10137000A50121E030E0F90101C0EE0F8A95EAF7FE
:10138000D90102C0AA0FBB1F6A95E2F7EA2B01C080
:10139000220F4A95EAF7892F8E23E81305C0292BDF
:1013A000822F0E94B409089520952923F9CF21E0C6
:1013B00030E001C0220F8A95EAF720958091A501BF
:1013C00082230E94B4090895909190018095892309
:1013D00080939001282F277069F4891759F0909114
:1013E000AD0392FF07C08695869586950E94D70922
:1013F0000E941409089521E030E001C0220F8A956F
:10140000EAF78091A501822B0E94B409089590917A
:10141000AD0392FF10C098E0899F90011124622BC8
:10142000609390010E94FB090E94800490938F01B9
:1014300080938E0108950E94FB0908958093A40172
:10144000089592959F70963091F058F4925F9F7036
:10145000923058F4803F19F030F4883E30F481E047
:1014600008959A5FF4CF843FD1F380E00895883ED9
:10147000B0F3813FD1F7F3CF662309F45DC08D3C13
:1014800041F40E94440681958093C7010E94E405BF
:1014900008958E3C19F40E944406F6CF8F3C31F437
:1014A0000E94440681958093C601F0CF803D19F4D7
:1014B0000E944406F8CF893D29F40E940B068093D0
:1014C000C801E4CF8A3D21F40E940B068195F7CF35
:1014D0008B3D31F40E940B0681958093C901D6CFD4
:1014E0008C3D19F40E940B06F8CF9FE2980F9830BC
:1014F00070F4815D990B21E030E001C0220F8A95E4
:10150000EAF78091C501822B8093C501BFCF8D3D45
:1015100031F48091BF0181608093BF01B7CF8E3DD0
:1015200021F48091BF018260F7CF8F3D09F0AECFEB
:101530008091BF018460F0CF4091C6018D3C59F489
:101540008091C70187FF0DC01092C70141110BC0E8
:101550001092BD0108C08E3C81F48091C70118161D
:101560009CF3442381F08091C8019091C901892B9B
:1015700009F08CCF1092BE0189CF8F3C49F447FF10
:10158000F0CF1092C6018091C7018111ECCFE0CF5E
:10159000803D19F41416ACF3E4CF9091C801893D55
:1015A00029F41916F4F61092C801DBCF8A3D19F41C
:1015B00097FFD7CFF8CF9091C9018B3D29F497FFC2
:1015C000D0CF1092C901CDCF8C3D19F41916CCF3B0
:1015D000C8CF9FE2980F983090F4815D990B21E07D
:1015E00030E0B90102C0660F771F8A95E2F7CB01A0
:1015F00080959091C50189238093C501B2CF8D3D1F
:1016000031F48091BF018E7F8093BF01AACF8E3DC0
:1016100021F48091BF018D7FF7CF8F3D09F0A1CFDD
:101620008091BF018B7FF0CF9C013A9521153F41FE
:1016300050F5FC01EE27F170BC0166277270AC0119
:10164000442754709C012227387094FF0EC080E11B
:10165000EF2B09F480E0672B09F08062452B09F03D
:101660008064232B89F08068089581E0EF2B09F4D2
:1016700080E0672B09F08260452B09F08460232B02
:1016800019F08860089580E008950F931F93CF9319
:10169000DF938B01EA019091D905943061F5809335
:1016A000E9008FEF9091E800815095FD06C095ED1F
:1016B0009A95F1F700008111F5CF8091E80085FF40
:1016C0001AC00E943303811111C08091E80085FD8A
:1016D00006C08091E8008E778093E800F2CFF80191
:1016E00081918F018093F100219779F78091E80033
:1016F0008E778093E800DF91CF911F910F9108952D
:1017000043E050E0BC0184E00E94450B089546E0B0
:1017100050E0BC0184E00E94450B0895CF93DF9315
:10172000EC0148E050E0BC0181E00E94450B88E0FC
:10173000FE01AFECB5E001900D928A95E1F7DF91E3
:10174000CF91089581E08093E00080E28093D800FB
:101750001092C9008FE19EE40197F1F700C00000EC
:1017600087E090EBDC018093310690933206A093E2
:101770003306B093340688E19CE00FB6F894A89540
:10178000809360000FBE90936000FFCF019708F434
:101790000895EFE9FFE03197F1F700C00000F6CFC0
:1017A000CF93DF93CDE4D3E060E0CE010E94BB2B6A
:1017B0002196C11584E0D807B9F7DF91CF9108953C
:1017C0001F93CF93DF93122F8830E0F46330D0F46F
:1017D0004630C0F4C42FD0E0CC0FDD1F9CE0699FE1
:1017E000C00DD11D112494E2899FC00DD11D11247B
:1017F000632FCE0189960E94BB2B612FCE018A9662
:101800000E94BB2BDF91CF911F910895CF93C82FDA
:101810006FEF81116CE885E290E00E94BB2B6FEFC7
:10182000C11166E286E290E00E94BB2B6FEFC1110E
:1018300068E987E290E00E94BB2BCF9108950F9357
:101840001F93CF93DF93883030F5633020F5463017
:1018500010F5C42FD0E0CC0FDD1F2CE0629FC00D2F
:10186000D11D112434E2839FC00DD11D1124CE015E
:1018700089960E949D2B082F10E0102F0027CE0183
:101880008A960E949D2B9801282BC901DF91CF9148
:101890001F910F91089590E080E0F8CF462F20919E
:1018A000BB013091BC01232B99F4703F39F4603FA8
:1018B00079F48091CA019091CB010895733040F47E
:1018C000663030F4883020F4672F0E941F0C089592
:1018D00090E080E00895CF92DF92FF920F931F93E4
:1018E000CF93DF936C010091A5018091A401082B97
:1018F000C7E0D0E010E0FC2EC8010C2E02C0959588
:1019000087950A94E2F780FD0CC02197A0F7F12C8F
:101910008F2DDF91CF911F910F91FF90DF90CF908E
:101920000895B6018C2F0E944E0C0E94BB070197B0
:1019300061F3EECFCF93DF93EC010E946B0CBE01FD
:101940000E944E0C0E94BB07DF91CF910895FC01CD
:101950008481882371F087819085009729F00E9407
:10196000BB070E94210A0895808191810E949A0CF0
:10197000F8CF80E00895A6E0B0E0E1ECFCE00C9444
:101980003F2B49835A8349815A819923A1F022230D
:1019900091F0CA010E946B0C182F682F89819A81DF
:1019A0000E947D0969817A81812F0E944E0C2696C2
:1019B000E3E00C945B2BCA010E944909182FF2CF77
:1019C000FC01262F87819085009741F44081518149
:1019D00062817381848195810E94BB0C08950F936D
:1019E0001F93CF93DF930FEC13E0C9E4D1E0CE0156
:1019F0000E949D2BF80161918F01681719F0CE01AB
:101A00000E94BB2B2196CD36F1E0DF0781F7DF91F5
:101A1000CF911F910F9108950F931F93CF93DF9351
:101A20000FEC13E0C9E4D1E0CE010E949D2BF80138
:101A300081938F012196CD36F1E0DF07A9F7C7E842
:101A4000D2E0FE0185919491009711F0FC01099577
:101A50002C96F3E0C338DF07A1F7DF91CF911F91F8
:101A60000F91089585E290E00E949D2B8C3889F4B7
:101A700086E290E00E949D2B863259F487E290E046
:101A80000E949D2B91E0883909F090E0892F8170A8
:101A9000089580E0FCCF9091AD0392FB222720F9BE
:101AA000281779F080FB92F99093AD036091AC0315
:101AB0007091AD0384E090E00E94D92B82E00E94F7
:101AC000E4090895DA019C012E5F3F4FF901459129
:101AD0005491F90125913491A217B30758F0FC01F4
:101AE0003496859194910E947D2B0E94EF0C90E09A
:101AF00080E008958FEF9FEF0895DB01FC0132969F
:101B0000259134914217530758F0FC0134966591A2
:101B10007491A901CD010E947D2B90E080E0089591
:101B20008FEF9FEF0895AAE0B0E0E9E9FDE00C94A3
:101B30003A2BECECF1E080EE91E0DF019C011D928C
:101B400021503040E1F7EAEFF3E080E591E0DF017A
:101B50009C011D9221503040E1F78CECC82E81E0B1
:101B6000D82E7F010DE611E0D701CD92DC924AE03C
:101B700050E0B801CE0101960E948D2B88E0FE0155
:101B80003196D60101900D928A95E1F789859A8563
:101B9000F70193838283FAE0CF0ED11C27E0E20E97
:101BA000F11C065F1F4F0D3433E01307E9F62A9648
:101BB000E8E00C94562BA3E0B0E0E1EEFDE00C94DD
:101BC000392B19821A821B8286E5C82E81E0D82E15
:101BD00010E000E0EE24E394F12CF60181916F0116
:101BE0008F3F09F446C0F894E82FE295EF70F0E0DB
:101BF00021A18F70A70102C0440F551F8A95E2F7FB
:101C0000CA01922F982B91A392A18095892382A338
:101C1000789400C0E9E5F1E0B12C31E021912F3F4B
:101C200009F46CC0A22FA295AF70B0E090968C9191
:101C300090E02F7002C0959587952A95E2F780FD78
:101C40005DC0832FB82A330F51E0EF35F50731F728
:101C5000F601319780818F3F11F00E94B30680EA30
:101C60008A95F1F7E1E0F0E0EC0FFD1FE00FF11FC6
:101C7000B0820F5F1F4F0330110509F0AECF43E074
:101C800050E0BE016F5F7F4F81EA91E00E94702BB0
:101C9000892BB1F189819A81AB818093A1019093C5
:101CA000A201A093A30181E08093A0010E9480047F
:101CB00090939F0180939E0180919E0190919F013E
:101CC0000E947104059700F143E050E061EA71E081
:101CD00088EB91E00E94702B892BD9F08091A101B3
:101CE0009091A201A091A3018093B8019093B901B2
:101CF000A093BA0181E01092A00107C080E0A2CFBA
:101D00008091A0018111D8CF80E02396E9E00C9466
:101D1000552B80E0F0CF8091AE0390912D06892B5A
:101D20008093700180919B01882309F18091D103F8
:101D30009091D203892B29F00E941B0981110E94E6
:101D4000D9088091700190919B01892B809370013B
:101D500020E082E791E0FC013191CF0131112F5F4A
:101D6000F1E088379F07B9F721110E94D90848E0B0
:101D700050E061E971E080E791E00E94702B892BCF
:101D8000A9F088E0E0E7F1E0A1E9B1E001900D926F
:101D90008A95E1F7E091C305F091C405309731F0E1
:101DA0000280F381E02D80E791E00995089580910C
:101DB0001201877F8093120190912D069D7F909351
:101DC0002D0684FF08C08F7E809312018091AE03A0
:101DD00082608093AE038091120185FF08C08F7DE1
:101DE000809312018091AE0380628093AE030E94C3
:101DF0008B0E0895CF931092AE03C6E0E2E7F1E0B8
:101E0000DF018C2F1D928A95E9F790E080E00E9417
:101E1000CB0490E080E00E94A60410922D060E9460
:101E20008B0EE4ECF1E0DF011D92CA95E9F7109208
:101E3000BD011092BE011092BF010E94E405CF9136
:101E40000895AAE2B0E0E7E2FFE00C943F2B8BEDAF
:101E500095E02091F100DC012D93CD01B5E0833EAA
:101E60009B07B9F78091DC05833009F472C0B8F4A0
:101E7000813009F449C0823009F4B3C08091E80090
:101E800083FF96C28091DB059091DC059A3008F0C3
:101E90008FC2E92FF0E0E750F44D0C94232B8A30E9
:101EA00009F48EC08B3009F471C0893039F7809104
:101EB000DB05813219F78091DF059091E0050097ED
:101EC00011F00297D9F68091E800877F8093E800AF
:101ED0008091E80082FF38C09091F3008091F20079
:101EE000029731F48091F100813011F0863021F4B5
:101EF0008091F1008093CE058091E8008B778093EC
:101F0000E8000E946403BACF8091DB05813A09F0B2
:101F1000B5CF8091E800877F8093E8008091DF054E
:101F20009091E005892B61F468E08FEC95E070E01A
:101F30000E9410048091E8008B778093E8009ECF88
:101F400060E090E080E0F3CF8091D9058111C0CFAF
:101F500095CF8091DB05813A09F090CF8091DF0524
:101F60009091E005892B09F089CF8091E800877F67
:101F70008093E8008091E80080FFFCCF80911401FD
:101F80008093F1008091E8008E77B9CF8091DB05D6
:101F9000813209F073CF8091DF059091E005892BA4
:101FA00009F06CCF8091E800877F8093E8000E9461
:101FB00064038091DD05809314010E94FA0E5ECFC8
:101FC0008091DB05813209F059CF8091E800877F4D
:101FD0008093E8000E9464038091DE058093CD0524
:101FE0004DCF8091DB05813A09F048CF8091E80020
:101FF000877F8093E8008091E80080FFFCCF80918C
:10200000CD05BECF803899F0823809F0D1C18091DA
:10201000DF058F70873008F0CBC18093E900809195
:10202000EB0085FB882780F91092E90006C08091BB
:10203000D7059091D805911182609091E800977F23
:102040009093E8008093F1001092F1008091E800F5
:102050008E77AAC1882309F498C1823009F0A8C1FB
:102060008091DD0581119BC18091DF058F702FEF7D
:10207000280F263008F09CC18093E9002091EB00E6
:1020800020FF8DC1933031F48091EB00806280930A
:10209000EB0085C19091EB0090619093EB0021E003
:1020A00030E001C0220F8A95EAF72093EA001092EF
:1020B000EA008091EB008860EACF811179C110912C
:1020C000DD051F778091E3008078812B8093E3000A
:1020D0008091E800877F8093E8000E9464038091EC
:1020E000E80080FFFCCF8091E30080688093E300EC
:1020F00082E0111183E08093D9055AC18058823063
:1021000008F056C12091DD053091DE052C3DE3E05D
:102110003E07A1F583E08A838AE289834FB7F8946A
:10212000DE01139620E03EE051E2E32FF0E0509311
:102130005700E49120FF03C0E295EF703F5FEF701E
:102140008E2F90E0EA30C0F0C7968D939D932F5F5D
:10215000243159F74FBF8091E800877F8093E800D2
:102160006AE270E0CE0101960E9410048091E800BE
:102170008B778093E8001CC1C096E7CF8091DF0584
:102180009091E005432F55274330510509F44AC08B
:1021900078F54130510509F485C08BE590E0E9E020
:1021A000F4E04230510509F003C12091E800277F97
:1021B0002093E8002091E1053091E2058217930712
:1021C00008F49C0140E02115310509F070C041116F
:1021D0006EC08091E80082FDC9CF8091D905882327
:1021E00029F2853019F28091E80083FFF2CFBECF4B
:1021F0004132510509F447C04232510509F0D8C0B7
:102200008330910508F0D4C0FC01EE0FFF1FEE599A
:10221000FE4F0190F081E02D815A9E4FDC018C91A0
:1022200090E01DC0332721303105E9F0211531053B
:1022300079F022303105F9F02330310509F0B8C0CA
:10224000E6E7F4E0E4918E2F90E0E6E7F4E007C0E3
:10225000E2ECF4E0E4918E2F90E0E2ECF4E0009701
:1022600009F4A6C0A2CFE4EAF4E0E4918E2F90E056
:10227000E4EAF4E0F4CFE4E9F4E0E4918E2F90E0B6
:10228000E4E9F4E0ECCF8330910508F091C0880FC9
:10229000991FFC01E859FE4F0190F081E02D89E083
:1022A00090E083CF82E190E0E4E6F4E07ECF80919D
:1022B000D905882309F45ACF853009F457CF809186
:1022C000E80083FD53CF8091E80082FD82CF8091AA
:1022D000E80080FF78CF9091F3008091F200211503
:1022E000310519F08830910550F041E0089709F068
:1022F00040E08091E8008E778093E80064CF4491BD
:102300004093F1003196215031090196E8CF803891
:1023100009F04EC08091E800877F8093E8008091AB
:10232000DA058093F10092CE811142C01091DD0553
:102330001230F0F58091E800877F8093E8001093D9
:10234000DA050E946403112311F084E005C0809136
:10235000E30087FDFACF81E08093D90542E061EC8C
:1023600081E00E94830342E261EC84E00E948303E7
:1023700042E261EC82E00E94830342E260EC83E08F
:102380000E9483038091D90513C08091DD058130BF
:1023900079F481E0933009F080E08093D8051092C1
:1023A000E9008091E800877F8093E8000E94640341
:1023B0008091E80083FF0AC08091E800877F8093C6
:1023C000E8008091EB0080628093EB00AA96E3E046
:1023D0000C945B2BEFECF3E0128E138E8FEA90E0FF
:1023E0009183808325E0248F88E893E1938382831F
:1023F0008AE090E09583848344E150E057834683EC
:1024000048E050E051874087938782876EE170E013
:10241000758764879787868780E590E0918B808BAE
:10242000538B428B48E250E0558B448B42E350E0A3
:10243000578B468B48EC50E0518F408F158E178E8E
:10244000168E91A380A322A30E94EF0C0E94FA0E85
:102450001092AD031092AC03EDEAF3E0808184604A
:1024600080836091AC037091AD0384E090E00E94A2
:10247000D92B0E940C0D0895AAE0B0E0E2E4F2E14D
:102480000C94362BA090BF05B090C00581E090E081
:102490009093C0058093BF0599E7C92E93E0D92E8C
:1024A000912C7601812C1EC0402F83E021E030E08A
:1024B000891540F0F801EE0FFF1FEE0DFF1D85910D
:1024C00094919C01682D892D0E94E00B0F5F1F4F96
:1024D0000630110549F783949CE0E90EF11CE3E016
:1024E0008E1619F010E000E0DFCF9394F4E2CF0EE7
:1024F000D11C88E09812D5CF0E94EA11FE013196D6
:102500007F018AE011928A95E9F70DE611E04AE031
:1025100050E0B801C7010E94DF2B065F1F4F0D344A
:10252000F3E01F07A1F7B092C005A092BF052A965D
:10253000ECE00C94522B80E00E94060C60E088E2F4
:1025400090E00E94BB2B0E943C120E94D00B81E0C5
:102550000E94060C0895CF92DF92EF92FF928FEFC8
:102560009FEF4430510508F46CC0FB01C080D1805E
:10257000E280F3800E94FA0E8091AC03C0FA80F9E9
:10258000B701A601769567955795479540FB81F968
:10259000B701A60122E076956795579547952A954C
:1025A000D1F740FB82F9B701A60133E07695679534
:1025B000579547953A95D1F740FB83F9B701A601A6
:1025C000E4E07695679557954795EA95D1F740FBF6
:1025D00084F9B701A601F5E076956795579547957B
:1025E000FA95D1F740FB85F9B701A601A6E07695EB
:1025F000679557954795AA95D1F740FB86F9B7019E
:10260000A601B7E07695679557954795BA95D1F7A6
:1026100040FB87F98093AC038091AD03D0FA80F939
:10262000D1FACC24C0F8C0FA81F98093AD0360914F
:10263000AC037091AD0384E090E00E94D92B90E050
:1026400080E0FF90EF90DF90CF9008950E94FA0E07
:102650002FEF84E39CE0215080409040E1F700C0E0
:10266000000088E19CE00FB6F894A8958093600084
:102670000FBE90936000FFCF882341F0809590912A
:102680002D06892380932D060E948B0E08958823A2
:1026900039F090912D06982B90932D060E948B0E69
:1026A0000895882321F00E940D090E948B0E089541
:1026B000882339F09091AE03982B9093AE030E943B
:1026C0008B0E08958823D1F19CEF980F913A78F4FE
:1026D000E2E7F1E09191891303C0DF0111971C92A9
:1026E00091E0E837F907B1F70E948B0E089590E268
:1026F000980F983050F4877091E001C0990F8A9537
:10270000EAF7892F0E940D09EFCF9BE5980F9330D0
:1027100028F490E080E00E94CB04089598E5980F9B
:102720009B3128F490E080E00E94A604089593E392
:10273000980F933118F460E00E943C0A0895CF93FB
:10274000DF93EC010E946213CE010E94140B9E01E4
:10275000205E31092830310510F0CD2B29F40E947C
:102760005113DF91CF9108950E943C13FACFCF937C
:10277000C82F8823B1F08CEF8C0F813A00F5E2E787
:10278000F1E088E791E0DF012D91C21761F08A172F
:102790009B07D1F76C2F80E791E00E948C040E9488
:1027A0008B0ECF9108952191C21303C0DF011197C1
:1027B0001C928E179F07B9F70E948B0EEBCF80E219
:1027C0008C0F883068F4C77021E030E001C0220F20
:1027D000CA95EAF78091AE03822B8093AE03DFCFD8
:1027E000EBE5EC0FE33040F4F0E0E35EFE4F808178
:1027F00090E00E94CB04D5CFE8E5EC0FEB3150F42C
:10280000F0E0EE0FFF1FE05EFE4F808191810E949D
:10281000A604C7CF83E38C0F833118F661E08C2FB9
:102820000E943C0ABECF1F93CF93DF93182FC09115
:10283000EF03D091F003893321F0C091ED03D091E3
:10284000EE03812F0E94B713209739F4812F0E9445
:102850006213DF91CF911F9108958FE99FE0019757
:10286000F1F700C000002197EFCF0F931F93CF9394
:10287000DF93C62FD42F022FFC0185818823A9F076
:10288000609330060E94800490932F0680932E065A
:10289000C77081E001C0880FCA95EAF70E945813FB
:1028A000DF91CF911F910F910895809130066813A9
:1028B00032C080912E0690912F060E947104883CB0
:1028C000910548F510E21D0FCD17B9F080E28C0F8D
:1028D000883040F4C77081E001C0880FCA95EAF7DC
:1028E0000E945113183048F481E09D2F977001C069
:1028F000880F9A95EAF70E945813802F0E941314AC
:10290000183070F6D77081E001C0880FDA95EAF7C9
:102910000E945113C5CFC77081E001C0880FCA95CE
:10292000EAF7F6CFB0E0A0E0E8E9F4E10C94382B48
:10293000EC018AE0A82E2881222309F48FC02130DF
:10294000C9F599818A81913021F422960E9413144D
:1029500005C0923029F422960E94B7132196EBCF3E
:10296000933021F422960E946213F8CF943011F034
:102970002196F4CF229630E020E0AE014F5F5F4F0A
:102980008053990B8A30910550F02150310930F372
:102990008FE99FE00197F1F700C00000F6CFA29EFB
:1029A000B001A39E700D11249C01260F371F898151
:1029B000EA01E3CFE22FF0E0EA50FB4FB490822F20
:1029C00086958695869590E0FC01EA51FB4FE49050
:1029D0002770F12C022E02C0F594E7940A94E2F7D6
:1029E00031E0E322FF24FC01EA52FB4FC490D12CDA
:1029F000022E02C0D594C7940A94E2F731E0C322B4
:102A0000DD24FC01EA53FB4F049110E002C0159550
:102A100007952A95E2F701701127E114F10419F0E6
:102A200081EE0E94B713C114D10419F086EE0E9402
:102A3000B7138B2D0E941314C114D10419F086EE24
:102A40000E946213E114F10419F081EE0E946213F6
:102A50000115110509F482CF8CE278CFCDB7DEB72E
:102A6000EAE00C94542BCF93DF93EC010E94140BFB
:102A70009E01205E31092830310510F0209741F485
:102A80000E9458138C2F0E94B713DF91CF910895A5
:102A90000E944713F7CF662329F020912D0622606C
:102AA00020932D069C0130522115304308F49927BC
:102AB0000E9433150895B0E0A0E0E1E6F5E10C9442
:102AC0003A2B6C018B01E42E8091120182FF87C0AA
:102AD000C091F503D091F603CC15DD0521F0C114AA
:102AE000D10409F07CC0809112018B7F8093120188
:102AF00081FD6EC08091F3039091F403A801481BFF
:102B0000590B81E0209110013091110142175307B8
:102B100008F480E08170F82E80911201F0FA81F9BA
:102B200080931201FE0183E0F695E7958A95E1F71F
:102B3000EE71FF27E155FC4F20813181AE014F70CE
:102B4000552781E090E002C0880F991F4A95E2F76F
:102B5000FF2009F43FC0822B932B918380838091C7
:102B6000AE0381FF08C08091120180618093120141
:102B700082E00E940D098091AE0385FF08C080911C
:102B8000120180628093120180E20E940D096F2D74
:102B9000CE010E944B15EE2031F08091EA0385FFB3
:102BA00002C086FF30C08091ED039091EE030E9439
:102BB000C60B8091F5039091F6039C0130522115CC
:102BC000304308F499270E949F130E94D70E17C024
:102BD00081E0A0CF8095909582239323BECFC6013C
:102BE000905281159043A0F4C60199270E949F132B
:102BF0008091F5039091F6038C159D0531F31093A8
:102C0000F4030093F303CDB7DEB7E8E00C94562B42
:102C1000C601ECCFA4E0B0E0E0E1F6E10C94362B85
:102C20007C01FC018481882309F418C261E0C7019A
:102C30000E94E00C8C01F7018581882309F4B9C05A
:102C4000C80197578038910508F0B3C0D02EFFE037
:102C5000F01708F4F4C18FEF93E00E949D2B8111CF
:102C6000EEC10DE413E0D11036C019821A821B8226
:102C70001C8299249A9468013FEFC31AD30AC801B1
:102C80000E949D2B89831A82882309F4D8C1813040
:102C900009F089C0580142E0A40EB11CC6010E948F
:102CA0009D2BC82E8A83882309F4C9C1C5010E94BF
:102CB0009D2BD82E8FEF8C0D8330D8F4580153E024
:102CC000A50EB11CDB82DD2021F0CE0101960E9411
:102CD00092148501D0CF011524E0120709F4AFC189
:102CE000C8010E949D2B811101C0DA940F5F1F4F14
:102CF000BACF8BEF8C0D833070F5C8010396DB8261
:102D00005C01DD2031F3580164E0A60EB11C0E9485
:102D10009D2B8C838823E9F20B811C8101307FEF8E
:102D2000170710F0102F002786E0C81681F097E0F3
:102D3000C91649F0C8010E9457228091ED03909175
:102D4000EE030E94C60BC8010E943222C2CFC80106
:102D50000E945722BECFE4E0CE12BBCF5801F4E070
:102D6000AF0EB11CC80103960E949D2BDD2009F413
:102D700066C1882309F463C18150990B989E900124
:102D8000999E300D11244D2D4150550BCA01820FD3
:102D9000931F019708F49DCFEFE9FFE03197F1F71A
:102DA00000C00000F6CFCE0101960E949214560199
:102DB00090CF8091EA0380FF98C00E9480046C014C
:102DC000F7018581882309F456C08091120182FFA2
:102DD00008C02AEA31E040E0B60190E080E00E94BD
:102DE0005B150431FCE71F0709F441C005312CE7EE
:102DF000120791F103313CE7130729F48091120186
:102E0000816080931201C80190528115904308F0AF
:102E100040C01092F6031092F503F701258122239A
:102E200009F419C210923006C8019057839708F030
:102E300012C284E090E00E94A52B9093AD03809392
:102E4000AC03F801E150F047E232F10508F046C169
:102E5000ED5FF34D0C94232B90911201892F8E7FFF
:102E600090FF8160809312010E94D70ECCCF809199
:102E700012018E7FF7CF809112018F7E013E1105E6
:102E800031F0053E1105E1F4809112018F7D8093B0
:102E900012018091120180FF28C0F701858108325C
:102EA000110570F50E31110508F07DC004301105D3
:102EB000C8F58823D1F01092F6031092F50315C0DF
:102EC000C80190528115904320F78091120182FF32
:102ED0000CC08091EC0381FD08C02AEA31E040E09B
:102EE000B60190E080E00E945B15F801E851FC47D4
:102EF000E730F10508F091CFEB5DF34D0C94232BF7
:102F00000933110558F40D32110518F40B3211056F
:102F100081F69091EA0392FDCCCF08C004361105EA
:102F2000C1F3C7CF9091EA0394FDC3CF882309F47E
:102F3000B0C09091AE0380919B01282F292B322F96
:102F40003D7FB1F11092F6031092F5033091EA0340
:102F500031FD2EC0F80143E0F695E7954A95E1F77B
:102F6000EE71FF27E155FC4F98012F70332781E068
:102F700090E002C0880F991F2A95E2F780959095FE
:102F800020813181822393239183808360E0C80173
:102F90000E944B1580919B018D7F0E94E40882E086
:102FA0000E94E4094CC09091EA0393FD82CFBECF0A
:102FB00039E0F701AAEAB1E001900D923A95E1F704
:102FC0001092AF011092AD011092AC01A090F503E8
:102FD000B090F6030A151B0509F044C03091EA03CE
:102FE00035FF40C04091120141FB992490F841FF08
:102FF00002C036FF37C04091F3035091F403B6018D
:10300000641B750B683C710568F591FF08C08091E1
:10301000120180618093120182E00E940D0980916B
:10302000AE0385FF08C08091120180628093120177
:1030300080E20E940D09692DC5010E944B15809107
:103040009001877059F0F7018581882339F08091CC
:10305000AD0382FF03C082E00E94E4092496ECE005
:103060000C94522B9091120121FB91F99093120133
:103070008D7F0E94E4081093F6030093F503D0922D
:10308000F403C092F30380911201846080931201D3
:1030900086CF970140E0B601C8010E945B15CFCFF3
:1030A00026E241EE61EEC7010E943514C8CF27E247
:1030B00045EE65EEF8CF26E241EE60EEF4CF27E272
:1030C00045EE64EEF0CF26E241EE62EEECCF27E271
:1030D00045EE66EEE8CF28E241E0EBCF8091AC030D
:1030E00081608093AC0395C08091AD03886080932C
:1030F000AD038FC08091AC038260F3CF8091AC03AD
:103100008460EFCF8091AC038860EBCF8091AD03FA
:103110008160EDCF8091AD038260E9CF8091AC03F7
:103120008061DFCF8091AC038062DBCF8091AC0304
:103130008064D7CF0E94FA0E8091AC038068D1CF13
:103140008091AC038C60CDCF8091AD038360CFCFF5
:103150008091AC038E7FC5CF8091AD03877FC7CFB1
:103160008091AC038D7FBDCF8091AC038B7FB9CFB5
:103170008091AC03877FB5CF8091AD038E7FB7CFB1
:103180008091AD038D7FB3CF8091AC038F7EA9CFAB
:103190008091AC038F7DA5CF8091AC038F7BA1CFB5
:1031A0000E94FA0E8091AC038F779BCF8091AC0385
:1031B000837F97CF8091AD038C7F99CF8091AC03B3
:1031C00082FB992790F921E0922790FB82F990FBEE
:1031D00083F987CF8091AD03982F909591708E7F62
:1031E000892B90FB81F983CF9091AC03892F8F7B42
:1031F00096FF806476CF0E94FA0E9091AC03892FDF
:1032000097FB87F980586DCF61E08EE090E00E94D7
:10321000BB2B6091AC037091AD0384E090E00E9401
:10322000D92B0E94FA0E0BCF60E0EFCF9091AC0348
:10323000892F8F7E94FF806154CF9091AC03892FAA
:103240008E7F90FF81604DCF9091AD03892F877F56
:1032500093FF88604CCF0631FCE71F0709F044C09C
:103260008091AE03982F9A7A3091E90330FF04C021
:10327000482F447409F090E031FF04C0482F417199
:1032800009F090E032FF04C0482F487809F090E040
:1032900033FF03C0827209F090E0222381F081E0C5
:1032A000911101C080E08093780169E2911165E39A
:1032B00080E791E00E948C040E948B0EC0CE80912A
:1032C000780181110FC089E2E2E7F1E028E731E0FF
:1032D0009191891303C0DF0111971C922E173F07AC
:1032E000B9F7EACF85E3F0CF07373CE7130709F4D6
:1032F00058C008374CE7140709F45EC0222381F058
:1033000003305CE7150709F477C008F05AC00115CF
:103310007CE7170709F463C001301C4709F472C049
:10332000F70187819085009709F47AC00E94BB0756
:10333000182F092FF701C580B680B2943FE0B32261
:10334000809190018770F1F0AC2CCC20E1F0892FB6
:10335000807F803451F080E2810F883098F0B11086
:1033600004C0892F807E803269F08091AD0382FF96
:1033700009C082E00E94E409809190018770AA242C
:10338000A3948111A12C902E92942FE09222FBE025
:10339000F91508F4D3C0E92DF0E0E45DF34D0C9489
:1033A000232B81E0222351F00E94FB0943E062E0DD
:1033B00081E00E94B70943CE82E0F4CF0E94D70992
:1033C000F5CF0B359CE7190749F10C35ECE71E07E3
:1033D000D9F00A351C4709F0A3CF81E01CC00E9438
:1033E000FA0E2FEF34E34CE0215030404040E1F73B
:1033F00000C000000E94A20B6FEF7FEF90E080E022
:103400000E94D92B0E9426138091AD0382FB88274E
:1034100080F991E089270E944B0D82CF80E0FBCF9D
:10342000858100811181882369F0C8010E946B0C9D
:10343000D82E682FC8010E947D09B8018D2D0E94E9
:103440004E0C74CFC8010E944909D82EF6CF202F08
:103450002F70D22E802F807F19F0D29490EFD92236
:10346000CC20B9F0DD2069F080E2810F883010F0C7
:10347000111109C08091AE03D82AD092AE030E94E8
:103480008B0E812F59C080912D06D82AD0922D06FF
:10349000F6CF812F0E946213DD2009F44FC080E235
:1034A000810F883010F0111104C08D2D0E940D097C
:1034B00006C0D09480912D06D822D0922D060E946D
:1034C0008B0E3CC0302F3F70D32E802F807F8032F8
:1034D00019F0D29480EFD8221123F1F0113009F4C1
:1034E000AFC0CC2009F4BBC0BB2009F45FC020E012
:1034F000F7014081518162817381848195810E94AD
:10350000BB0C8091EC0381FDBCCFF701868180FF6D
:10351000B8CF8F7086834AC08091AD0382FD42C0D0
:10352000CC20D1F1DD2039F08091AE03D82AD092A1
:10353000AE030E948B0E80E00E94B713692D685085
:10354000770B6430710510F40E94F004812F902FE6
:103550000E94210A8111C3C110927A01109279014F
:10356000AA20A9F08091900180FD11C0F701158279
:103570008695869586950E94FB09C7010E940A16CA
:10358000809190018695869586950E94D70960E086
:10359000C7010E94E00C62CD80E00E946213DD2032
:1035A00069F283CFCC2091F1B11004C08D2D0E941F
:1035B0005813C4CF41E0B41211C080909B018D2DEF
:1035C0008821D81609F4BACF0E94800490939A01FA
:1035D00080939901D828D0929B01B0CF8091EB03C2
:1035E000823008F4ABCFB812A9CF8D2D0E945813AA
:1035F0008D2D0E94F80880918D019D2D9823D9165C
:1036000009F49CCFD82AD0928D0198CFB1100AC06E
:103610008D2D0E9451138D2D0E94F8088D2D0E9432
:1036200035098CCF8091EB03823008F487CF51E0CD
:10363000B51284CF8091AE038D2109F47FCFE8CFFE
:103640008091F103CC2021F08B1508F477CFAECF19
:10365000B81608F073CF8D2D0E9451136FCFBB2089
:10366000D1F38091EF039091F003193321F0809111
:10367000ED039091EE030E94C60B812F0E9462130E
:103680005DCF802F86958695837069F0813009F033
:1036900055CF812F902F9370C11002C080E090E031
:1036A0000E94A6044BCF812F902F9370C11002C0AF
:1036B00080E090E00E94CB0441CF6C2D812F0E94CE
:1036C0003C0A3CCF802F837091F5C11037CF412F3A
:1036D000429546954770440F440F812F8F70042EFA
:1036E00001C0880F0A94EAF7212F207114FF07C048
:1036F0002FE030E001C0220F4A95EAF72095302FE5
:10370000369536953370323069F050F44091A4010B
:10371000313029F0822B84230E941E0A0FCF842B84
:10372000822BFACF282B8091A4018227F5CF869592
:10373000CC2011F0802F8170882309F4FFCE412F17
:10374000429546954770440F440F812F8F70042E89
:1037500001C0880F0A94EAF7212F207114FF07C0D7
:103760002FE030E001C0220F4A95EAF72095302F74
:10377000369536953370323069F050F44091A5019A
:10378000313029F0822B84230E94B409D7CE842BB8
:10379000822BFACF282B8091A5018227F5CFF02F1D
:1037A000FF70DF2ECC2029F08F2F0E94FB09812F84
:1037B000FECE812F0E9451138D2D0E94D709BECEBF
:1037C000123F89F160F4103FB9F0113F81F0CC2035
:1037D00009F480C0B11055CE802F8F7128C0133FDF
:1037E00049F1143FA1F78091AD0382FD2FC0802FD6
:1037F0008F71CC2011F31BC08091F103CC2079F0A4
:10380000B81608F09BCE202F2F7181E090E001C008
:10381000880F2A95EAF79091A5018927B5CF8B15D6
:1038200008F48CCEF0CF802F8F71C110C6CF0E94CC
:10383000FB0984CE80E0CC2009F4A6CF81E0902F54
:103840009F7101C0880F9A95EAF79ECF8091EB0394
:10385000823040F1CC20D1F090919001977094305B
:1038600041F40E941409802F8F710E94D709A12C66
:1038700065CEB816E0F7202F2F71D22E822F0E942E
:10388000FB0963E08D2D0E94070AF1CFB81630F0D6
:103890000E94140964E0802F8F71F5CF81E00E94AF
:1038A000E409E5CFCC2059F0302F3F71D32E832F80
:1038B0000E94FB0963E08D2D0E94070A3FCE81E044
:1038C0000E94E40941E04B1508F038CE82E00E94E6
:1038D000E40934CEB110C5CE802F8F716ECFCC20CD
:1038E00019F0B11039CE3CCEB11036CE20E0F70140
:1038F0004081518162817381848195810E94BB0CDA
:103900008091EC0383FF28CE8091790190917A0118
:10391000029709F021CE812F0E9413141DCECF9360
:10392000DF9380918A01807F09F04DC080918901E9
:10393000882309F448C0E0912C065091E305C0911A
:103940008501D0918401609186017091870149E0E1
:103950005E17C9F18E2F90E0E49FF0011124EC5125
:10396000FA4F2481222391F1489FF001499FF00DE5
:103970001124DF01AC51BA4F11962C9111972C13E1
:1039800025C02C912D1322C015962C91159721112D
:103990001DC012962D913C91261B370B283C3105FA
:1039A000A8F480918A018F70806180938A01E6512A
:1039B000FA4F80818F708061808384E891E00E945B
:1039C0000A160E943F09DF91CF910895FC013196BC
:1039D000E770BECFA8E1B0E0E0EFFCE10C94352B3E
:1039E0008C0186E0F801DE01539601900D928A95D4
:1039F000E1F7D80114969C9014971596EC9084E802
:103A0000A82E81E0B82E8091880181112AC09110E2
:103A100003C0FF24F3941CC0EE20F9F0C8010E94FB
:103A2000A70CF82E8823C9F089E0F801A4E8B1E0DA
:103A300001900D928A95E1F780918801813031F4EF
:103A400080918401909185010E949A0C0E948F1CA4
:103A50008F2D6896EDE00C94512BC8010E940A1638
:103A6000D8CFF80170808180C280D38060E084E884
:103A700091E00E94E00CF090890180918601909184
:103A80008701FF2009F425C19601281B390B283C2A
:103A9000310508F0D1C0992009F4BBCF20918501F0
:103AA000D80111969C91119780918A01382F307F0F
:103AB00009F071C029131FC0209184019C91291322
:103AC0001AC040918B0150918C0117962D913C9119
:103AD0004217530781F4E11054C08F7080618093C6
:103AE0008A0184E891E00E940A1680918A01F80117
:103AF0008683F12CADCFE11044C0682D872D0E9444
:103B0000F502E82E882381F08091EC0380FFF1CF4D
:103B100084E891E00E940A1689E0E4E8F1E0DF0120
:103B20001D928A95E9F7E5CF7B8A8C8A8B899C89DF
:103B30000E949A0C292F22952F70243058F49F70E0
:103B4000223088F0992399F0F8019681907F79F4DA
:103B5000FE2C7ECF2A5F2F70223068F0C8010E94B1
:103B60000A16EF2CF5CF992311F0882389F3805E94
:103B7000883070F3F3CF803F58F3815F833070F764
:103B8000E7CF80918A01816080938A018091EC0364
:103B900081FDAFCFBDCF291320C0209184019C911E
:103BA00029131BC040918B0150918C0117962D91C8
:103BB0003C9118974217530781F4E1100EC01696F6
:103BC0008C93C8010E940A1689E0F801A4E8B1E0CC
:103BD00001900D928A95E1F73BCFC8010E94A70C96
:103BE000882309F43ACFEE2009F437CF80918A0177
:103BF0008032B8F020918401309185013B872A877B
:103C0000DD86CC86909188019E871F86888B809167
:103C10008B0190918C019A8B898BCE010A960E9420
:103C20000A1689E0F801A4E8B1E001900D928A95A6
:103C3000E1F70E948F1CEDCE80918A01982F907F32
:103C400009F466CF992009F4E4CE20918501F801AA
:103C5000918129131AC0209184019081291315C0E4
:103C600040918B0150918C01278130854217530779
:103C700061F4E1100AC08683C8010E940A1689E037
:103C8000D5011D928A95E9F7E3CEC8010E94A70CE1
:103C9000882309F4E2CEEE2009F4DFCE80918A0178
:103CA000803208F4BECF20918401309185013A839F
:103CB0002983DC82CB82909188019D831E828F8331
:103CC00080918B0190918C0199878887CE01019614
:103CD000A6CFC81AD90AB8ECCB16D10480F6992021
:103CE00009F497CEFE2CEE2009F4B7CE9091850111
:103CF000F8018181981322C09091840180819813EA
:103D00001DC020918B0130918C01878190852817EF
:103D10003907A1F490918A0190FD56CF907F09F464
:103D200053CF80918A018683903F09F44ACF982F20
:103D3000907F905F8F70892B868343CFC8010E944C
:103D4000A70C81116ECF80918A01816080938A01D6
:103D5000C8010E940A167CCEA2E1B0E0E2EBFEE1CF
:103D60000C943E2B0A871B872C873D874E875F87E5
:103D7000688B798B8A8BCE010A960E94EA1C81118E
:103D80000CC089E0FE013A96DE01119601900D9279
:103D90008A95E1F78E8581110BC019E080912C0680
:103DA0009091E305891331C06296E4E00C945A2B9C
:103DB0002091E30530E0C901019687709927409171
:103DC0002C064817190699F099E0929FD001939F0D
:103DD000B00D1124AC51BA4FFE01319601900D92F5
:103DE0009A95E1F78093E3050E943F09D6CF0E94A0
:103DF000FA0E1092E30510922C0689E0E4E8F1E057
:103E0000DF011D928A95E9F7C8CF819FC001112477
:103E10008C519A4F0E94EA1C882331F280912C0623
:103E200090E001968770992780932C06B7CFEF9288
:103E3000FF920F931F93CF93DF9380914A058823BE
:103E400061F0E091F9038DE0F82E80914A05E817C2
:103E500048F010924A051092F903CDB7DEB7E6E0BC
:103E60000C94582BEE24E394EE0EE092F903CE2F3F
:103E7000D0E0EF9DF0011124E55BFA4F84818823A7
:103E8000E9F087819085892B21F4818592850196BF
:103E900059F40081118122813381448155816681E9
:103EA000778180850E94AC1EFC9EF001FD9EF00D86
:103EB0001124E55BFA4F148210922D06EE2DC5CF2A
:103EC0001092BE051092BD05109213018091BC05A1
:103ED0008093BB050E942B050E94171F0895B0E038
:103EE000A0E0E5E7FFE10C94312BC091BB0597E022
:103EF000992E01E010E02DE0322E34E0432E5524BF
:103F000053948091BC058C1309C00E94171F0E9416
:103F10002B05CDB7DEB7E1E10C944D2BD0E0FE01CF
:103F2000EE0FFF1FED54FA4F80819181989ED001D2
:103F3000999EB00D1124A650BC4F14962C91149745
:103F4000211159C060904A05EBE4F5E030E020E033
:103F5000812C5D01261508F04CC0E384F484D50162
:103F6000CD90DC906FEF7FEF712C472D50E0DA01A0
:103F7000AA0FBB1FAC0DBD1D0D90BC91A02D1097BD
:103F800031F0EA16FB0609F4BA017394EECF6F3FE5
:103F90007607A9F1D80102C0AA0FBB1F6A95E2F704
:103FA0008A2AB801072C02C0660F771F0A94E2F72D
:103FB000AB01415051098416150601F5329EF001FE
:103FC000339EF00D1124E55BFA4F989ED001999E27
:103FD000B00D1124A650BC4F12962D913C91139711
:103FE00030872783448210821182928781871596B9
:103FF0005C920E94FD042196C37083CF14822F5FD0
:104000003F4F3D96A7CFAEE1B0E0E9E0F0E20C947F
:10401000302B4B8B5C8B6D8B7E8B8F8B988F88239B
:1040200049F08091790190917A01019690937A01FB
:1040300080937901888D811110922D06188A198A32
:104040001A8A86E0FE017396DE011A9601900D929F
:104050008A95E1F78091AD0382FF1EC08091D10364
:104060009091D203892BC1F00E94800420918E018F
:1040700030918F01821B930B2091D1033091D20399
:104080008217930720F08091900182FFE7C10E9480
:104090001B0981110E94D9088E85882389F061E06F
:1040A000CE010A960E94E00C6C018F8520E5C216B5
:1040B0002CE7D20689F4882329F181E0809313014B
:1040C0000A851B852C853D854E855F8568897989A4
:1040D0008A890E94AC1ECDC031E5C3163CE7D306E9
:1040E00029F4882379F00E94601FEACF42E5C416C4
:1040F0004CE7D40639F4882329F08091130181110B
:10410000F2CFDBCF9AEFE92E93E0F92E412CB12CC0
:10411000A12C88248394912CBE016F5F7F4F7A8FEE
:10412000698F22242394F7014081518166246A9487
:10413000762C20E0822F90E0FC01EE0FFF1FE40FB1
:10414000F51F608171816115710531F0C616D706C2
:1041500009F43C012F5FEECF312CFFEF6F167F0685
:1041600009F448C0F701448130901301832D4111B7
:1041700080E0F82FF1703F2EF701558086819F85F2
:10418000992309F4F7C0332009F4F4C00091E50342
:104190001091E603511013C0A401062C01C0440F76
:1041A0000A94EAF7842B86838091F7039091F803B1
:1041B0008017910720F41093F8030093F703C401CC
:1041C00002C0880F991F2A95E2F70197F70126810F
:1041D0002817190679F48091BD059091BE050097C6
:1041E00009F44BC00E9471040817190708F045C074
:1041F000F70124824328FFEFAF1ABF0A27E0E20E3F
:10420000F11C30E3A316B10409F08DCF8F8588230C
:1042100009F410C1442009F40DC10E948004909358
:10422000BE058093BD0580914A05883010F591E068
:10423000980F90934A0599E0FE013A96DE01119697
:1042400001900D929A95E1F74DE0849FC0011124F1
:10425000855B9A4F29E0FE013196DC0101900D92B9
:104260002A95E1F72FEF3FEFFC0132872187D486B3
:10427000C3866E96E2E10C944C2B8091BB05509165
:10428000BC05982FF0E0E0E0851314C09093BB05C7
:10429000EE16FF0609F4AECF90E0FC01EE0FFF1F13
:1042A000ED54FA4FB182A0820196837099278093D2
:1042B000BC05A0CF682E712CF301EE0FFF1FED544B
:1042C000FA4F20813181F7E0F29FD001F39FB00DCA
:1042D0001124A650BC4F2D913C9111973E8F2D8FEC
:1042E00040E020E030E0E32FF0E0EE0FFF1F6D8DA7
:1042F0007E8DE60FF71F0081118101151105E1F098
:10430000F7010190F081E02DFC8FEB8F20E005C0DC
:104310000617170709F4432D2F5FE22FF0E0EE0F89
:10432000FF1F6B8D7C8DE60FF71F6081718161151A
:10433000710571F73F5FD7CF4423C9F0F701231709
:1043400008F0FD012482EE16FF0621F49093BB05D0
:10435000342E50CF981305C0AE17BF0711F49F5FDE
:10436000937093012F5F3F4F822F83708DCFF0E0CA
:10437000E0E0F7CF90E0511020C0B40102C0660F1A
:10438000771F2A95E2F79B01215031098217930785
:1043900031F4442309F44CC0C5010E94FD04C4015A
:1043A000062C01C0880F0A94EAF7982F9095F70120
:1043B000868189238683352C1DCFAC01062C02C053
:1043C000559547950A94E2F7BA01617077279C01E9
:1043D0002150310982239323892B31F5672B21F159
:1043E000F70182819381892BE1F0E98DFA8D27E035
:1043F00011922A95E9F70E948004282F8B839C83D1
:1044000034E03D83F70182819381782F88879987F3
:1044100009811A813C8144E05E816F81892F0E946D
:10442000AC1EF7011582BBCFF42FF1705F2EB7CF12
:10443000532CB5CF9091BB058091BC05981729F0FE
:104440000E946F1F411015CF3BCE0E94171F109284
:10445000BE051092BD050E942B05F4CF82E00E949C
:10446000E40915CEA6E0B0E0E8E3F2E20C94402BBC
:104470009093CB018093CA01811520E2920730F41A
:104480000E949F132696E2E00C945C2B80EF8983B8
:104490008A830E9480048160682F9C838B8349817A
:1044A0005A817C8181E090E00E940320EBCFA6E05E
:1044B000B0E0EDE5F2E20C94402B9093CB018093B9
:1044C000CA01811520E2920730F40E943315269626
:1044D000E2E00C945C2B80EF89838A830E94800445
:1044E0008160682F9C838B8349815A817C8181E024
:1044F00091E00E940320EBCFA6E0B0E0E2E8F2E218
:104500000C943E2B0E9480048C0180919C01909120
:104510009D018017910781F019821A820E94800400
:10452000682F49815A81792F80E090E00E94032012
:1045300010939D0100939C012696E4E00C945A2B65
:104540001F920F920FB60F9211242F933F934F9308
:104550005F936F937F938F939F93AF93BF93CF930B
:10456000DF93EF93FF93D091E900DF708091EC002F
:10457000C82FC17080FDC0E81092E9008091F00062
:10458000877F8093F00078940E94210F1092E900B9
:104590008091F00088608093F000CD2BCF70C093A5
:1045A000E900FF91EF91DF91CF91BF91AF919F9182
:1045B0008F917F916F915F914F913F912F910F90CC
:1045C0000FBE0F901F9018951F920F920FB60F926B
:1045D00011242F933F934F935F936F937F938F9308
:1045E0009F93AF93BF93EF93FF938091E10082FF7E
:1045F00009C08091E20082FF05C08091E1008B7FBD
:104600008093E1008091DA0080FF24C08091D8007F
:1046100080FF20C08091DA008E7F8093DA00809145
:10462000D90080FF9DC080E189BD82E189BD09B4C8
:1046300000FEFDCF81E08093D9058091CC058111EA
:1046400009C00E9414030E94B5038091E2008460B7
:104650008093E2008091E10080FF17C08091E2002A
:1046600080FF13C08091E2008E7F8093E2008091F2
:10467000E20080618093E2008091D80080628093A4
:10468000D80019BC85E08093D9058091E10084FFB2
:104690002BC08091E20084FF27C080E189BD82E1C8
:1046A00089BD89B5982F917080FFFBCF8091D8008C
:1046B0008F7D8093D8008091E1008F7E8093E10010
:1046C0008091E2008F7E8093E2008091E200816021
:1046D0008093E2008091DA05882309F447C084E0E2
:1046E0008093D9058091D9058091E10083FF27C08F
:1046F0008091E20083FF23C08091E100877F809357
:10470000E10082E08093D9051092DA058091E10002
:104710008E7F8093E1008091E2008E7F8093E200A3
:104720008091E20080618093E20042E060E080E0FE
:104730000E9483038091F00088608093F000FF91D5
:10474000EF91BF91AF919F918F917F916F915F9109
:104750004F913F912F910F900FBE0F901F90189582
:1047600019BC1092D9051092CC0574CF8091E3004A
:1047700087FD93E09093D905B5CF78941F921FB62B
:104780001F9211248F939F93AF93BF938091C8057D
:104790009091C905A091CA05B091CB050196A11DC4
:1047A000B11D8093C8059093C905A093CA05B09325
:1047B000CB05BF91AF919F918F911F901FBE1F900E
:1047C00018951F921FB61F9211248F939F93AF933A
:1047D000BF938091C705811113C08091C805909146
:1047E000C905A091CA05B091CB054196A11DB11D87
:1047F0008093C8059093C905A093CA05B093CB05D3
:10480000BF91AF919F918F911F901FBE1F901895E0
:10481000CDB7DEB7E2970FB6F894DEBF0FBECDBFBF
:1048200085B7806885BF85B7806885BF84B7877F77
:1048300084BF0FB6F894A89580916000886180933A
:104840006000109260000FBE80E890E00FB6F89410
:1048500080936100909361000FBE81EB96E090938E
:104860006F0180936E010E94930D0E940C0D0E94B7
:1048700014030E94B5038091E20084608093E200FB
:1048800078948091D9058823A1F01091E9001F70D8
:104890009091EC00892F817090FD80E8182B109288
:1048A000E9008091E80083FD0E94210F1F701093A2
:1048B000E90082E084BD93E095BD9AEF97BD8093B7
:1048C0006E000E94320D811102C00E949B1286EC84
:1048D0000E94B30680E30E94B30683E30E94B306FE
:1048E00009E511E0AFE5EA2EA1E0FA2ED8018D919D
:1048F0008D018F3F11F00E94B306E016F106B1F76B
:1049000083E0E8EBF1E0DF01282F1D922A95E9F71B
:10491000E1EAF1E0DF011D928A95E9F790E080E09D
:104920000E94A52B863E9E4F21F40E94320D8111DC
:1049300067C066EE7EEF90E080E00E94D92B60E0D9
:1049400082E090E00E94BB2B60E083E090E00E9458
:10495000BB2B1092A40160E074E184E090E00E941F
:10496000D92B60E086E090E00E94BB2B6FEF87E0E0
:1049700090E00E94BB2B40E050E0BA0188E090E05C
:104980000E94CD2B60E084E290E00E94BB2B60E0AF
:1049900087E190E00E94BB2B60E08CE090E00E94F9
:1049A000BB2B60E08DE090E00E94BB2B19821A8245
:1049B0001B821C821D821E821F82188648E050E0E6
:1049C00068E170E0CE0101960E94AB2B40E050E020
:1049D000BA0180E290E00E94CD2B80E00E94060C9C
:1049E0000E949B1240E050E0BA018FE090E00E94EC
:1049F000CD2B40E050E0BA0183E190E00E94CD2B46
:104A000082E090E00E949D2B8093A60184E090E0DC
:104A10000E94A52B9093AD038093AC030E94DB0D05
:104A2000EFEFF6E721E0E150F0402040E1F700C071
:104A300000000E94DB0D8091B80180FF08C06FEF7D
:104A40007FEF90E080E00E94D92B0E94A20B83E0D0
:104A500090E00E949D2B0E941E0A80E091E09093BE
:104A6000C4058093C30533243394222423948E01F8
:104A70000F5F1F4F8091D905E0E1FE2EF2E1EF2E8E
:104A8000853009F463C10E94DB0D9091B8018091DB
:104A9000A701981365C19091A8018091B90198135D
:104AA0005FC19091A9018091BA01981359C10E94E8
:104AB0007C2280911301882301F18091BD059091A2
:104AC000BE050097D1F00E9471042091F703309148
:104AD000F8032817390788F49091BB058091BC052D
:104AE000981709F481C10E946F1F1092F803109269
:104AF000F7031092BE051092BD058091EA0380FF76
:104B00001EC08091120182FF1AC00E948004209171
:104B1000F3033091F403AC01421B530B20911001BD
:104B2000309111014217530750F02AEA31E041E079
:104B3000BC018091F5039091F6030E945B1586E01D
:104B4000E4ECF1E0D80101900D928A95E1F7C09074
:104B5000C501D090C601E090C701B090C801F090A7
:104B6000C9011092C6011092C7011092C80110929B
:104B7000C9018D2D8E2991F08091C2019091C301C0
:104B80000E947104AC019091BD01992309F435C1D3
:104B900080910E018417150608F43DC18F2D8B29D5
:104BA00091F08091C0019091C1010E947104AC010B
:104BB0009091BE01992309F468C180910A0184177C
:104BC000150608F470C18091C5018C1117C0809141
:104BD000C601882311F0D81211C02091C7012223E9
:104BE00011F02E110BC09091C901992311F09F1162
:104BF00005C03091C801332309F4F0C40E94E405D4
:104C000086E0F801A4ECB1E001900D928A95E1F7FD
:104C10000E94F0049091B301891769F08093B30169
:104C20008FB7F8944091C8055091C9056091CA05A5
:104C30007091CB058FBF8091D905843009F01ACFD0
:104C400083E08093E9008091E80082FF13CF809198
:104C5000E80090E085FF0AC00E94330350E2E52E91
:104C6000F12C6801882309F462C191E08091E80089
:104C70008B778093E800992309F4FCCEE090BB0188
:104C8000F090BC018981E114F10409F45EC18E3F0A
:104C900009F0EAC18A81833020F08550833008F022
:104CA000E3C1EA81EE3008F0DFC1F0E0E85CF34DEB
:104CB0000C94232B8091D905843021F11092C705E3
:104CC00088E190E0A0E40FB6F894A8958093600086
:104CD0000FBEA093600083B7817F846083BF83B7DA
:104CE000816083BF7894889583B78E7F83BF0FB62A
:104CF000F894A8958091600088618093600010927C
:104D000060000FBE8091D805882301F10E94DB0D61
:104D10008091B9019091B801892B9091BA01892BAA
:104D2000A9F0F9BCE9BC09B400FEFDCF8091D80020
:104D30008F7D8093D8008091E00082608093E000B6
:104D40008091E00081FDFCCF0E94FA0E8091D90590
:104D5000853009F4AFCF0E94FA0E0E94F00493CE82
:104D600068EBC62E61E0D62E77EAE72E71E0F72ECB
:104D7000B12CF601A1906F01D7017D907D017A14CD
:104D800019F17A24912C88248394872D8821A1F00D
:104D90009BA6BCA60E9480049EA78DA72FA691E08B
:104DA0008A2D882109F490E098AB4BA55CA56DA5F0
:104DB0007EA58FA50E9403209394880CB6E09B12D9
:104DC000E4CFF7013197A082B394E3E0BE12D1CFD4
:104DD0008FB7F8944091C8055091C9056091CA05F4
:104DE0007091CB058FBF65CE0E94171F1092BE0534
:104DF0001092BD050E942B0580CE20910F01FAE094
:104E00002F9F900111242417350708F0C7CE9F5F0C
:104E10009093BD0102C09F3FD1F7DD2059F00E9461
:104E200044069FEF1D140CF491E0899F802D1124FE
:104E30008093C601EE2059F00E94440691E01E14B2
:104E40000CF09FEF899F802D11248093C7018091E2
:104E5000C601882309F4A2CEA090C701AA2009F4B4
:104E60009DCE0E94A306882351F08093C6018A2D0F
:104E70000E94A306882331F08093C7018FCE309221
:104E8000C601F5CF3092C70189CE20910B018AE08F
:104E9000289F900111242417350708F094CE9F5FB6
:104EA0009093BE0102C09F3FD1F7BB2059F00E94F2
:104EB0000B069FEF1B140CF491E0899F802D1124A9
:104EC0008093C801FF2059F00E940B0691E01F1447
:104ED0000CF09FEF899F802D11248093C901809150
:104EE000C801882309F46FCEB090C901BB2009F432
:104EF0006ACE0E94A306882351F08093C8018B2DAF
:104F00000E94A306882331F08093C9015CCE3092C1
:104F1000C801F5CF3092C90156CE8091F100D6017B
:104F20008D936D01B1E0EB1AF10809F49ECE8091EA
:104F3000E80085FDF2CF8091E8008B778093E80050
:104F40000E943303882399F390CE8C3009F4CBC0B0
:104F500060F5843009F4AEC050F4823009F46AC0C0
:104F600008F099C0813009F461C08FEF18C3863012
:104F700009F4B6C008F4A9C08B30B9F78091BF0519
:104F80009091C005892B09F46FC040E250E0B80150
:104F900082E00E94450B3FEF41EE84E031504040FB
:104FA0008040E1F700C0000050CD803109F4CAC054
:104FB00088F58E3009F49DC008F498C08091BF0533
:104FC0009091C005892B09F44FC0EC80F12C3DE194
:104FD000E316F10408F048C0CA80DB80DC24CD244D
:104FE000DC245801E00EF11EC601835B9C4FEA14DD
:104FF000FB04D1F143EBC416D10428F4D501149677
:105000006C910E94BB2BBFEFAB1ABB0AEFEFCE1A1D
:10501000DE0AEACF823109F49AC008F496C08331DF
:1050200009F4BEC08E3F09F0A0CF3BCE1A8289E0C2
:105030008B831AC08A81823009F4D5C28330D9F0BB
:10504000813009F092CF2FB7F8946091C805709124
:10505000C9058091CA059091CB052FBF0E94292BCD
:105060006B837C838D839E8340E250E0B80182E0B5
:105070000E94450BFFCC8091BF059091C005892B04
:1050800099F38091B8018B838091B9018C838091D1
:10509000BA018D83E9CF8A81823009F066CF6B81B6
:1050A0007C818D819E810E94292B88E290E00E9464
:1050B000BB2BDACF4C816B818A810E941F0C982711
:1050C000892798279E838D83CFCF2D813E813227DC
:1050D000232732274C816B818A810E94E00BC4CF49
:1050E0000E943C12C1CF80E18A83BECF1A8283EB3B
:1050F0009FCFEC80F12CEDE1EE16F10408F0B4CF77
:10510000CA80DB80DC24CD24DC245801E00EF11EB3
:10511000C601835B9C4FAE14BF0409F4A5CFF3EB2B
:10512000CF16D10460F40E949D2BD50114968C9368
:10513000FFEFCF1ADF0A2FEFA21AB20AE9CFF5016B
:105140001482F6CF0E94D00B8FCF88E0CDCFEC80B9
:10515000F12CFDE1EF16F10408F086CFCA80DB8068
:10516000DC24CD24DC245801E00EF11EC601899612
:10517000EA14FB0409F478CF20E2C21621E0D2063B
:1051800060F40E949D2BD50114968C93FFEFCF1AEB
:10519000DF0A2FEFA21AB20AE9CFF5011482F6CF87
:1051A000CC80D12C3DE1C316D10408F05DCFEA805C
:1051B000FB80FE24EF24FE2440E2E41641E0F406E6
:1051C00008F052CF80E291E08E199F098C159D0561
:1051D00008F44ACF370189E2680E711C8091BF053F
:1051E0009091C00526014E0C5F1C892BB9F5570123
:1051F00091E0A922BB24E0FE0DC0C70188960E9461
:105200009D2B9D8189279827892781159C4711F41B
:105210008FEF8D83460140FE1AC0B1E08B1A9108D2
:10522000E5E0F0E0EC0FFD1FE80DF91DFAABE9AB8E
:10523000C3018C0D9D1D0E949D2BA9A9BAA99C910B
:1052400081159C4721F48FEFE9A9FAA98083F80121
:10525000EA0DFB1D2FEFA814B90410F068011BC064
:105260009481858181159C4711F42483258342E034
:10527000A40EB11C3296EFCFA0E2EA16A1E0FA0626
:1052800020F4F60164810E94BB2BFFEFCF1ADF0AE6
:105290002FEFE21AF20AC7018996E414F50461F7C8
:1052A000E3CE88E0E5E1F1E0DE01919601900D9218
:1052B0008A95E1F780E2D8011D928A95E9F786E0A8
:1052C000898388E0FE01B196DE01159601900D926A
:1052D0008A95E1F7C9CE80EF89831A821B821C82EE
:1052E000C3CE8C81682F70E0762F66278B81860F66
:1052F000972F911D092E000CAA0BBB0B45E0880FC0
:10530000991FAA1FBB1F4A95D1F7AC01BD01405E92
:105310005F4F6F4F7F4F481759076A077B0708F4A5
:10532000A3CE803F9105A105B10508F09DCE413F78
:1053300051056105710520F040EF50E060E070E03C
:10534000481B590BBC0163577E4FC8010E94672B55
:105350008BCE4AE150E06FEF70E0CE0107960E94DD
:10536000862B8091BF058983EA821B821C823D8245
:1053700085E08E8379CE81E090E09093BC018093AC
:10538000BB0182E390E09093B7018093B6010E9445
:1053900080049093B5018093B40166CEEF2861F14B
:1053A000F090B801E090B9018091B4019091B501FD
:1053B0000E9471048536910540F1E5FE26C0F0FE9D
:1053C00024C00E9480049093B5018093B401809121
:1053D000B6019091B70101979093B7018093B60100
:1053E000892B51F41092BC011092BB0181E090E036
:1053F0009093C0058093BF058091BF0589838091FC
:10540000BB018A838091B60113CE82E390E0909332
:10541000B7018093B601F0CF1092C0051092BF057E
:1054200023CEEB80FC8040E250E06FEF70E0C801DB
:105430000E94862B2DE732E0A9E7B3E090E080E000
:10544000AC014E5F5F4F4132510508F00DCEF901BE
:1054500065917491E616F70630F4800F911FFC01F8
:1054600071836083CA01245F3F4FA217B30741F7DE
:10547000FBCD2B813C818DE792E0FC01459154915D
:105480004217530709F47CC00C96F3E089379F0755
:10549000A1F76BCD8B819C812DE7E22E22E0F22ECD
:1054A000F701259134918217930709F47AC0FCE043
:1054B000EF0EF11C29E7E21623E0F20689F7CC246F
:1054C000CA94DC2C89C00E94EA11CECD8B81833036
:1054D00059F0843039F18111C7CD80E2D8011D9295
:1054E0008A95E9F780E300CE6C812AE0CE018196AF
:1054F000FC01322F11923A95E9F7603388F4629FEC
:10550000B001112463597E4F4AE050E00E948D2B78
:1055100080E089838AE0FE01B196DE011296D6CE44
:105520008FEFF7CF6C818AE0FE013596DE01919610
:1055300001900D928A95E1F789A59AA581154CE70E
:10554000940741F42091BF053091C005232B11F43D
:1055500090E080E09AA789A78FEF603368F48AE033
:10556000689FB001112463597E4F4AE050E0CE019C
:1055700081960E94DF2B80E089830E94930D74CD79
:10558000FC013696259134912115310509F4EDCCB5
:105590004FE150E0BE016E5F7F4FF90109958983AD
:1055A00063CDF7013896259134912115310509F421
:1055B00086CF4CE150E0BE016B5F7F4FC701F90120
:1055C00009956C01892B41F4F7013A9685919491E4
:1055D000009711F0FC010995C98246CD822B892BD9
:1055E00009F40ECB0BCB88E290E00E949D2B1B822E
:1055F0001C821D82BECEAA1BBB1B51E107C0AA1F85
:10560000BB1FA617B70710F0A61BB70B881F991F63
:105610005A95A9F780959095BC01CD01089597FB07
:10562000072E16F4009407D077FD09D00E94FB2ABC
:1056300007FC05D03EF4909581959F4F0895709595
:1056400061957F4F0895EE0FFF1F0590F491E02DB7
:105650000994692796276927782787277827089547
:105660002F923F924F925F926F927F928F929F9272
:10567000AF92BF92CF92DF92EF92FF920F931F9360
:10568000CF93DF93CDB7DEB7CA1BDB0B0FB6F89411
:10569000DEBF0FBECDBF09942A88398848885F8451
:1056A0006E847D848C849B84AA84B984C884DF80C2
:1056B000EE80FD800C811B81AA81B981CE0FD11DA6
:1056C0000FB6F894DEBF0FBECDBFED010895FB010C
:1056D000DC0102C005900D9241505040D8F708956A
:1056E000FB01DC0104C08D910190801921F441502F
:1056F0005040C8F7881B990B0895FB01DC0102C0DC
:1057000001900D9241505040D8F70895DC0101C03E
:105710006D9341505040E0F70895DC01CB01FC014E
:10572000F999FECF06C0F2BDE1BDF89A319600B4FA
:105730000D9241505040B8F70895F999FECF92BDAF
:1057400081BDF89A992780B50895A8E1B0E042E0BC
:1057500050E00C948F2BDC01A40FB51F415050403A
:1057600048F0CB01840F951F2E910E94BC2B415015
:105770005040D0F70895262FF999FECF92BD81BDF4
:10578000F89A019700B4021639F01FBA20BD0FB67F
:10579000F894FA9AF99A0FBE08950396272F0E945B
:1057A000BC2B0E94BB2B252F0E94BC2B242F0C94BA
:1057B000BC2B0196272F0E94BC2B0C94BB2BDC0129
:1057C000CB0103C02D910E94EA2B41505040D0F7ED
:1057D0000895262FF999FECF1FBA92BD81BD20BD35
:1057E0000FB6F894FA9AF99A0FBE01960895F894B4
:1057F000FFCF02102A10D8112A10D8115D107E1088
:10580000D81187119411A8181D19B0187A187E188C
:10581000B4188218B818C4188E1816199218C81817
:105820009618CC18F4189A18D018FB18A018D61887
:10583000DE188618BC188A18C018A418DA18EA18D6
:10584000041914197418AC1824195B185F1850182F
:105850005718631867186B18271A271A621A621AE2
:10586000411B5D1B9E1A9E1A621BCF1BE01BE01B97
:1058700051296B29712934283428A929BB29CE291B
:0C5880000C2A112A392A4A2A632A662AB7
:10588C006E048E0B870B800B280850011E0A140126
:10589C00AF00010101BEA29B4C6E78DA7D81828340
:1058AC00E200E900EA00B500B600B700CD008301C4
:1058BC00CC008A01920194012102230224022502C8
:1058CC00260227022A02B300B4006F0070009F0169
:1058DC00CB019F02A002C63033959392F491904471
:0E58EC00227B49012701AC001B043404540444
:00000001FF
